:100000000C9434000C9449000C9449000C94490061
:100010000C9449000C9449000C9449000C9449003C
:100020000C9449000C9449000C9449000C9449002C
:100030000C9449000C9449000C9449000C9449001C
:100040000C9449000C9449000C9449000C9449000C
:100050000C9449000C9449000C9449000C944900FC
:100060000C9449000C94490011241FBECFEFD8E036
:10007000DEBFCDBF11E0A0E0B1E0EEEFF1E002C0E5
:1000800005900D92A432B107D9F70E94B8000C94E4
:10009000FD000C9400001092C50087E68093C40018
:1000A00088E18093C10086E08093C200089590911A
:1000B000C00095FFFCCF8093C60008958091C000DA
:1000C00087FFFCCF8091C6000895CF93DF93EC01AA
:1000D0008991811103C0DF91CF9108950E9457004B
:1000E000F7CF9C0183E0F90180935700E89507B6AC
:1000F00000FCFDCFDB0190E080E061E0F901E80F5A
:10010000F91F11965C9111974C910A016093570069
:10011000E8951124029612968038910579F785E0CA
:10012000F90180935700E89507B600FCFDCF81E107
:1001300080935700E89508950C9400000895259A3F
:1001400083E02D9A2FEF31EE94E021503040904023
:10015000E1F700C000002D982FEF31EE94E0215020
:1001600030409040E1F700C00000815051F7089501
:10017000CDB7DEB7C058D1090FB6F894DEBF0FBEB9
:10018000CDBF0E944B000E949F0080E091E00E9442
:1001900065000E945E00803519F482E191E0F7CF9E
:1001A0008335B9F7F12CE12C6E0181E8C80ED11C22
:1001B0000E945E008434C1F48E010F5F1F4F58010E
:1001C0000E945E00F80181938F01EC15FD05C1F7D7
:1001D000B501C7010E94710088E191E00E946500AD
:1001E000F0E8EF0EF11CE4CF853411F78DE191E0DA
:0E01F0000E9465000C940000FFCFF894FFCF32
:1001FE00424F4F544C4F414445525F524541445932
:10020E000A00504F4E470A0041434B0A00444F4EDE
:04021E00450A00008D
:00000001FF
